S00B0000474D442E7372656341
S113000093C0ADC0FDC0ABC0AAC0A9C0A8C0A7C062
S1130010A6C0A6C0A4C0A3C0A2C0A1C0A0C09FC0C7
S11300209EC09DC09CC06E616E00696E66000040FB
S11300307A10F35A00A0724E18090010A5D4E800F3
S113004000E87648170000E40B54020000CA9A3B0B
S1130050000000E1F5050000809698000000404291
S11300600F000000A086010000001027000000001F
S1130070E803000000006400000000000A00000023
S113008000000100000000002C76D888DC674F08CF
S113009023DFC1DFAE59E1B1B796E5E3E453C63AD5
S11300A0E651997696E8E6C28426EB898C9B62ED4C
S11300B0407C6FFCEFBC9C9F40F2BAA56FA5F49006
S11300C0055A2AF75C936B6CF9676DC11BFCE0E47D
S11300D00D47FEF520E6B500D0ED902E03009435D3
S11300E077050080841E080000204E0A000000C826
S11300F00C333333330F986E12831141EF8D211477
S1130100893BE65516CFFEE6DB18D1844B381BF746
S11301107C1D901DA4BBE424203284725E228100E5
S1130120C9F124ECA1E53D2711241FBECFE5D4E09D
S1130130DEBFCDBF10E0A0E6B0E0EEE9F3E102C01F
S113014005900D92AA37B107D9F720E0AAE7B0E0ED
S113015001C01D92A638B207E1F7BAD01EC950CF2C
S11301601F920F920FB60F9211242F938F939F9388
S1130170AF93BF9380917F008823C1F180917A006F
S113018090917B00A0917C00B0917D000196A11D0F
S1130190B11D80937A0090937B00A0937C00B09370
S11301A07D0080917A0090917B00A0917C00B091B9
S11301B07D0022B7BA2FA92F982F8827820F911D6F
S11301C0A11DB11D8130944DA043B10578F010926A
S11301D07F0010927E008FEF9FEFDC018093800000
S11301E090938100A0938200B0938300BF91AF915C
S11301F09F918F912F910F900FBE0F901F90189584
S11302001F920F920FB60F9211242F933F934F9387
S11302105F936F937F938F939F93AF93BF93EF936A
S1130220FF9380917E00882399F180917F00811152
S11302300DC081E080937F0010927A0010927B00C1
S113024010927C0010927D0012BE22C010927F009A
S113025080917A0090917B00A0917C00B0917D0008
S113026022B76627782F892F9A2F620F711D811D5F
S1130270911D2AE330E040E050E08FD620938000C7
S113028030938100409382005093830010927E004B
S1130290FF91EF91BF91AF919F918F917F916F915A
S11302A05F914F913F912F910F900FBE0F901F9030
S11302B01895A89885E08A95F1F70000A89A81E03E
S11302C080937E0085E38A95F1F70000A89808954D
S11302D03BD127D1A09A85B7846085BF8BB780684E
S11302E08BBF81E083BF12BE89BF78941FBC80E4BA
S11302F09DE097BD86BD8AE18EBDB99A82E88FBD27
S113030066B577B580E090E057D56B017C016091CC
S1130310600070916100882777FD8095982F4ED5F5
S11303209B01AC01C701B601D5D520E030E04AE716
S113033054E4A9D410D57BBD6ABD02E610E044E6BE
S1130340B42EC3E3D0E0FAD0809180009091810074
S1130350A0918200B0918300BF93AF939F938F933A
S11303601F930F93BDD08091800090918100A09144
S11303708200B09183000F900F900F900F900F9018
S11303800F90843C9940A105B10560F580918000EF
S113039090918100A0918200B0918300B89E900159
S11303A0B99E300D112437BD26BD66B577B580E002
S11303B090E002D56B017C01609160007091610056
S11303C0882777FD8095982FF9D49B01AC01C7014C
S11303D0B60180D520E030E04AE754E454D4BBD4DD
S11303E07BBD6ABD80917E008111ADCF8FE99FE016
S11303F00197F1F700C000002197209709F0A3CFDF
S113040058DF9FCFAA9A85E38A95F1F70000AA984E
S11304100895CF93DF931F92CDB7DEB7EFECF7E0EB
S11304203197F1F700C00000662311F0A99A01C0CA
S1130430A9988D9A8E9A8F9AB89AC09897989698F8
S1130440959887FDC09A86FD979A85FD969A84FDB6
S1130450959A8983D7DFC0989798969895988981BB
S113046083FDC09A82FD979A81FD969A80FD959AA4
S1130470C9DF959A969A979AC09A0F90DF91CF9177
S1130480089560E0C6CFEFEFE80FE33028F4F0E022
S1130490E958FF4F908101C090E0282F30E030935D
S11304A085002093840080E8890FEBCF8A3059F4CB
S11304B080918400909185001816190614F480E048
S11304C001C08F5FE0CF61E0A4CFCF93DF93EC0155
S11304D08991882311F0EADFFBCFDF91CF91089552
S11304E0CF93DF93CDB7DEB7DA950FB6F894DEBFBE
S11304F00FBECDBFFE01EB5FFE4F419151919F01B5
S11305006FEF70E0CE010196C1D6CE010196DDDF1A
S1130510D3950FB6F894DEBF0FBECDBFDF91CF9158
S11305200895109285001092840081E0AADF8FEC78
S113053097E00197F1F700C000000895109285003C
S11305401092840082E09DCFA19AA29A8D9A8E9AED
S11305508F9AB89A2FE788E391E021508040904029
S1130560E1F700C00000969A959A4CDF8FE39FE173
S11305700197F1F700C0000045DF8FEF90E001978D
S1130580F1F700C0000095983DDF8FE39FE10197EC
S1130590F1F700C0000088E274DF34DF8FE39FE1ED
S11305A00197F1F700C0000086E06BDF2BDF8FE0DE
S11305B097E20197F1F700C000008FE062DF22DFCD
S11305C08FE097E20197F1F700C00000B7CFA3E1F5
S11305D0B0E0ECEEF2E003C57C011B016A01FC0112
S11305E017821682838181FF49C3BE016F5F7F4FEB
S11305F04B01F7019381F10193FD859193FF819163
S11306001F01882309F436C3853239F493FD85919B
S113061093FF81911F01853231F4B70190E004D634
S113062056016501E6CF10E0512C20E02032A0F401
S11306308B3269F030F4803259F0833269F42061EE
S11306402CC08D3239F0803339F4216026C0226009
S1130650246023C0286021C027FD27C030ED380F57
S11306603A3078F426FF06C0FAE01F9F300D1124BB
S1130670132F13C06AE0569E300D1124532E2062AE
S11306800CC08E3221F426FDF5C2206406C08C36DF
S113069011F4206802C0883641F4F10193FD85917C
S11306A093FF81911F018111C1CF9BEB980F933070
S11306B018F42061805E06C09BE9980F933008F01F
S11306C09AC12F7E26FF16E02F73722E853621F4F1
S11306D0F22FF0647F2E08C0863621F4622F606802
S11306E0762E02C01111115077FE07C01C3348F456
S11306F044244394410E27E00BC0183030F4212FDA
S113070006C027E04CE3442E03C027E017E0412C49
S1130710560174E0A70EB11CF601608171818281DB
S11307209381042DA40192D46C01098100FF02C0BD
S113073003FF06C071FC07C072FC08C0612C08C02E
S11307403DE2632E05C02BE2622E02C090E2692EC8
S1130750802F8C7081F1662011F084E001C083E069
S1130760851510F0512C0AC0581A73FC07C0B70144
S113077080E290E059D55A94D1F7F4CF662021F065
S1130780B701862D90E050D503FD03C00AE210E0C6
S113079002C006E210E0F72DF0717F2EF80184917B
S11307A0882309F45EC271108052B70190E03CD5F1
S11307B00F5F1F4FF3CF77FE0FC04C0C04FF04C034
S11307C08A81813309F44A94141474F5F8E0F41519
S11307D078F588E0482E2CC076FC2AC0812F90E062
S11307E08C159D059CF06CEFC6166FEFD60674F061
S11307F0772D7068772E0AC0E2E0F0E0EC0FFD1F61
S1130800E10FF11D8081803319F411501111F4CFDF
S113081077FE0EC044244394410E812F90E0C81605
S1130820D9062CF41C1904C04424439401C010E0DC
S113083077FE07C01C141D043CF496012F5F3F4F44
S113084005C025E030E002C021E030E0662011F070
S11308502F5F3F4F112331F0412F50E04F5F5F4F27
S1130860240F351F452D50E02417350714F4521A70
S113087001C0512C872D897041F4552031F0B70106
S113088080E290E0D1D45A94F8CF662021F0B701E9
S1130890862D90E0C9D473FC08C0552031F0B7010F
S11308A080E390E0C1D45A94F8CF77FE5DC09C2DCC
S11308B08D2DD7FE02C090E080E0692E782E40E0B6
S11308C050E0C601841991099D878C8796012619E9
S11308D03709280D391D812F90E0EE27FF27E81BEB
S11308E0F90BFF87EE87FFEF6F167F0661F4B70100
S11308F08EE290E02B8B3A8B488B598B95D4598997
S113090048893A892B89C614D70454F06C857D85AF
S1130910661577052CF4F901E40FF51F818101C0F8
S113092080E371E0671A71084F5F5F4FEE85FF85C2
S11309306E167F0664F0B70190E02B8B3A8B488BE0
S1130940598B72D42B893A8948895989CCCF6C1434
S11309507D0439F49A81963318F4953311F404FF25
S113096081E3B70190E045C08A81813309F00F7EAD
S1130970B70190E059D4111105C074FE16C085E486
S113098090E015C0B7018EE290E04ED482E0662478
S11309906394680EF401E80FF11D8081B70190E0C3
S11309A043D4115051F3862DF2CF85E690E0B70180
S11309B03BD4D7FC05C0C114D10439F404FF05C0ED
S11309C0D194C194D1088DE201C08BE2B70190E0CB
S11309D02BD480E36AE0C616D1042CF08F5FFAE0D2
S11309E0CF1AD108F7CFB70190E01ED4B701C601E2
S11309F0C0961AD436C1833631F0833779F0833503
S1130A0009F054C020C0560172E0A70EB11CF601D3
S1130A108081898301E010E0640113C05601F2E093
S1130A20AF0EB11CF601C080D18026FF03C0612F38
S1130A3070E002C06FEF7FEFC6012B8BEAD38C010D
S1130A402B892F7714C05601F2E0AF0EB11CF601CA
S1130A50C080D18026FF03C0612F70E002C06FEF19
S1130A607FEFC6012B8BCAD38C012B892068722E91
S1130A7023FD18C0852D90E00817190798F4B701D5
S1130A8080E290E0D1D35A94F5CFF60177FC8591BA
S1130A9077FE81916F01B70190E0C6D351105A944B
S1130AA0015011090115110581F7DBC0843611F0DD
S1130AB0893649F5560127FF09C0F4E0AF0EB11C91
S1130AC0F60160817181828193810AC0F2E0AF0EE8
S1130AD0B11CF60160817181882777FD8095982F7C
S1130AE0022F0F7697FF08C09095809570956195B9
S1130AF07F4F8F4F9F4F00682AE030E0A401EFD36F
S1130B00C82EC8183DC0022F853721F40F7E2AE075
S1130B1030E01DC0097F8F3691F018F4883559F004
S1130B20A9C0803719F0883711F0A4C0006104FF10
S1130B3009C0046007C024FF08C0066006C028E09E
S1130B4030E005C020E130E002C020E132E056018F
S1130B5007FF09C0F4E0AF0EB11CF601608171819A
S1130B608281938108C0F2E0AF0EB11CF60160816E
S1130B70718180E090E0A401B2D3C82EC8180F7729
S1130B8006FF0BC0202F2E7FC11650F404FF0AC0AD
S1130B9002FD08C0202F2E7E05C0DC2C202F03C0B0
S1130BA0DC2C01C0D12E24FF0DC0FE01EC0DF11D83
S1130BB08081803311F4297E09C022FF06C0D394BA
S1130BC0D39404C0822F867809F0D39423FD12C0F5
S1130BD020FF06C01C2DD51418F4150D1D19D52C95
S1130BE0D51460F4B70180E290E02B8B1DD3D3942D
S1130BF02B89F6CFD51410F45D1801C0512C24FFB5
S1130C0011C0B70180E390E02B8B0ED32B8922FF18
S1130C1016C021FF03C088E590E002C088E790E099
S1130C20B7010CC0822F867851F021FD02C080E20A
S1130C3001C08BE227FD8DE2B70190E0F5D2C11629
S1130C4030F4B70180E390E0EFD21150F8CFCA94AA
S1130C50F401EC0DF11D8081B70190E0E5D2C110E3
S1130C60F6CF552009F4DDCCB70180E290E0DCD268
S1130C705A94F7CFF7018681978102C08FEF9FEFD7
S1130C806396E2E1C8C10CD0EBC0E3D040F0DAD007
S1130C9030F021F45F3F19F0CCC0511115C1CFC021
S1130CA0F0D098F39923C9F35523B1F3951B550B51
S1130CB0BB27AA2762177307840738F09F5F5F4F2B
S1130CC0220F331F441FAA1FA9F333D00E2E3AF06C
S1130CD0E0E830D091505040E695001CCAF729D086
S1130CE0FE2F27D0660F771F881FBB1F26173707D5
S1130CF04807AB07B0E809F0BB0B802DBF01FF2705
S1130D0093585F4F2AF09E3F510568F092C0DCC0B3
S1130D105F3FECF3983EDCF3869577956795B7953E
S1130D20F7959F5FC9F7880F911D9695879597F959
S1130D300895E1E0660F771F881FBB1F62177307D2
S1130D408407BA0720F0621B730B840BBA0BEE1FE7
S1130D5088F7E095089504D06894B111B5C008955A
S1130D6098D088F09F5790F0B92F9927B751A0F0E9
S1130D70D1F0660F771F881F991F1AF0BA95C9F72B
S1130D8012C0B13081F09FD0B1E008959CC0672FAC
S1130D90782F8827B85F39F0B93FCCF386957795DB
S1130DA06795B395D9F73EF49095809570956195C4
S1130DB07F4F8F4F9F4F0895E89409C097FB3EF4EF
S1130DC090958095709561957F4F8F4F9F4F992394
S1130DD0A9F0F92F96E9BB279395F6958795779512
S1130DE06795B795F111F8CFFAF4BB0F11F460FFD2
S1130DF01BC06F5F7F4F8F4F9F4F16C0882311F02A
S1130E0096E911C0772321F09EE8872F762F05C03D
S1130E10662371F096E8862F70E060E02AF09A95D8
S1130E20660F771F881FDAF7880F9695879597F9CD
S1130E30089597F99F6780E870E060E008959FEF58
S1130E4080EC089500240A9416161706180609065D
S1130E50089500240A94121613061406050608952C
S1130E60092E0394000C11F4882352F0BB0F40F4B4
S1130E70BF2B11F460FF04C06F5F7F4F8F4F9F4FF4
S1130E80089557FD9058440F551F59F05F3F71F076
S1130E904795880F97FB991F61F09F3F79F08795DD
S1130EA00895121613061406551FF2CF4695F1DF66
S1130EB008C0161617061806991FF1CF86957105F6
S1130EC0610508940895E894BB2766277727CB012A
S1130ED097F908950BD0C4CFB5DF28F0BADF18F026
S1130EE0952309F0A6CFABCF1124EECFCADFA0F330
S1130EF0959FD1F3950F50E0551F629FF001729FAB
S1130F00BB27F00DB11D639FAA27F00DB11DAA1FC9
S1130F10649F6627B00DA11D661F829F2227B00D16
S1130F20A11D621F739FB00DA11D621F839FA00DA1
S1130F30611D221F749F3327A00D611D231F849FF1
S1130F40600D211D822F762F6A2F11249F57504048
S1130F508AF0E1F088234AF0EE0FFF1FBB1F661FE3
S1130F60771F881F91505040A9F79E3F510570F09C
S1130F7060CFAACF5F3FECF3983EDCF3869577957C
S1130F806795B795F795E7959F5FC1F7FE2B880F97
S1130F90911D9695879597F90895A1E21A2EAA1B9B
S1130FA0BB1BFD010DC0AA1FBB1FEE1FFF1FA21715
S1130FB0B307E407F50720F0A21BB30BE40BF50B12
S1130FC0661F771F881F991F1A9469F7609570959B
S1130FD0809590959B01AC01BD01CF0108952F929E
S1130FE03F924F925F926F927F928F929F92AF92B5
S1130FF0BF92CF92DF92EF92FF920F931F93CF9302
S1131000DF93CDB7DEB7CA1BDB0B0FB6F894DEBF98
S11310100FBECDBF09942A88398848885F846E84BE
S11310207D848C849B84AA84B984C884DF80EE8008
S1131030FD800C811B81AA81B981CE0FD11D0FB611
S1131040F894DEBF0FBECDBFED010895283008F03F
S113105027E03327DA01990F311D87FD916000964F
S11310606105710539F432602E5F3D9330E32A95B2
S1131070E1F708959F3F30F080387105610509F06C
S11310803C5F3C5F3D93913008F08068911DDF9395
S1131090CF931F930F93FF92EF92192F987F9695FA
S11310A0E92F96959695E90FFF27E857FF4F992763
S11310B03327EE24FF24A701E70105900894079441
S11310C028F4360FE71EF81E491F511D660F771FBF
S11310D0881F991F0694A1F70590079428F4E70E3A
S11310E0F81E491F561FC11D770F881F991F661FC1
S11310F00694A1F70590079428F4F80E491F561F8B
S1131100C71FD11D880F991F661F771F0694A1F76B
S11311100590079420F4490F561FC71FD81F990F35
S1131120661F771F881F0694A9F78491109517707E
S113113041F0D695C79557954795F794E7941A9536
S1131140C1F7EEE2F0E06894159015913591659140
S1131150959105907FE27395E118F10A430B560BC4
S1131160C90BD009C0F7E10CF11E431F561FC91F5C
S1131170D01D7EF4703311F48A95E6CFE8940150C3
S113118030F0080F0AF40027021708F4202F2395E3
S1131190022F7A3328F079E37D932A95E9F710C07A
S11311A07D932A9589F606949795679537951795B3
S11311B01794E118F10A430B560BC90BD00998F0A8
S11311C023957E9173957A3308F070E37C93201312
S11311D0B8F77E9170617D9330F0839571E37D93D0
S11311E070E32A95E1F71124EF90FF900F911F917E
S11311F0CF91DF91992787FD90950895FC01059083
S1131200615070400110D8F7809590958E0F9F1F04
S11312100895FC016150704001900110D8F7809549
S113122090958E0F9F1F08950F931F93CF93DF9375
S1131230182F092FEB018B8181FD03C08FEF9FEFE6
S113124020C082FF10C04E815F812C813D814217F6
S113125053077CF4E881F9819F012F5F3F4F398365
S11312602883108306C0E885F985812F0995892B89
S113127029F72E813F812F5F3F4F3F832E83812F9C
S1131280902FDF91CF911F910F910895AEE0B0E0C0
S1131290EBE4F9E0B2CE8C01CA0146E04C831A8338
S11312A0098377FF02C060E070E8615071097E83B2
S11312B06D83A901BC01CE01019689D94D815E815E
S11312C057FD0AC02F813885421753070CF49A0141
S11312D0F801E20FF31F10822E96E4E0AACEFA0181
S11312E0AA27283051F1203181F1E8946F936E7F61
S11312F06E5F7F4F8F4F9F4FAF4FB1E03ED0B4E052
S11313003CD0670F781F891F9A1FA11D680F791F92
S11313108A1F911DA11D6A0F711D811D911DA11DA3
S113132020D009F468943F912AE0269F11243019B3
S1131330305D3193DEF6CF010895462F4770405D4E
S11313404193B3E00FD0C9F7F6CF462F4F70405DFD
S11313504A3318F0495D31FD4052419302D0A9F758
S1131360EACFB4E0A6959795879577956795BA9552
S1131370C9F700976105710508959B01AC010A2E18
S113138006945795479537952795BA95C9F7620FEF
S1111390731F841F951FA01D0895F894FFCFAE
S113139E640044697374616E63653A2025342E309B
S10D13AE646D6D20202000401454EB
S9030000FC
