:1000000033C0000044C0000042C0000040C00000F7
:100010003EC000003CC000003AC0000038C00000F4
:1000200036C0000034C0000032C0000030C0000004
:100030002EC000002CC000002AC0000028C0000014
:1000400026C0000024C0000022C0000020C0000024
:100050001EC000001CC000001AC0000018C0000034
:1000600016C0000014C0000011241FBECFEFD8E05E
:10007000DEBFCDBF11E0A0E0B1E0E8E9F1E002C0F1
:1000800005900D92A230B107D9F75AD083C0B8CFEE
:100090001092C5008CE08093C400E0ECF0E0808119
:1000A0008260808388E18093C10086E08093C200F3
:1000B0000895AC0120E007C08091C00085FFFCCF0F
:1000C000E093C6002F5FFA01E20FF11DE081EE23FD
:1000D00099F70895282F8091C00085FFFCCF822FCB
:1000E00064E64CD0805D8093C6008091C00085FF9F
:1000F000FCCF822F6AE042D041D0905D9093C60041
:100100008091C00085FFFCCF822F6AE037D0905DE0
:100110009093C600089590917C00907F982B9093C7
:100120007C0080917A00806480937A0080917A00CC
:1001300086FDFCCF2091780030917900C9010895A7
:10014000CF93DF93A5DF80917C00806480937C0057
:1001500080917A00836080937A0080917A00806831
:1001600080937A00C4ECD9E080E0D5DFB3DF80E093
:1001700091E09FDFCE010197F1F7F6CF991B79E06F
:1001800004C0991F961708F0961B881F7A95C9F727
:0801900080950895F894FFCF5B
:020198000A005B
:00000001FF
