:1000000033C0000045C0000043C0000041C00000F4
:100010003FC000003DC000003BC0000039C00000F0
:1000200037C0000035C0000033C0000031C0000000
:100030002FC000002DC000002BC0000029C0000010
:1000400027C0000025C0000023C0000021C0000020
:100050001FC0000080C600001BC0000019C00000C7
:1000600017C0000015C0000011241FBECFEFD4E060
:10007000DEBFCDBF12E0A0E0B1E0EEE2F1E102C0F0
:1000800005900D92A432B107D9F72AD70C949508A0
:10009000B7CFEF92FF920F931F937B018C0120E06B
:1000A00030E040E05FE455D388237CF0C801B7011D
:1000B00020E030E040E05FE45ED176D39B01AC010C
:1000C000205030404040504805C0C801B7016CD3B3
:1000D0009B01AC01B901CA011F910F91FF90EF90F4
:1000E0000895A0E0B0E0E6E7F0E04CC7DC012B01AA
:1000F000FA019C91923008F439C1EB018881823079
:1001000008F433C1943069F4843009F02FC111969A
:100110009C9111978981981709F428C1ABE1B1E04E
:1001200025C1843009F421C18230A9F4923009F04C
:100130001DC19A01AD0188E0EA010990AE01E90113
:1001400009929E018150C1F7E201898111969C912B
:100150008923818308C1923009F407C112962D903A
:100160003C901397EB018A819B811496AD90BD90D2
:10017000CD90DC901797EC80FD800E811F8191015E
:10018000281B390BB90137FF04C066277727621B8C
:10019000730B603271050CF061C0121613066CF51A
:1001A00037014801062E04C096948794779467948B
:1001B0000A94D2F721E030E040E050E004C0220F82
:1001C000331F441F551F6A95D2F7215030404040DD
:1001D00050402E213F214023512321153105410557
:1001E000510521F021E030E040E050E079018A0142
:1001F000E628F728082919293CC0232BD1F1260E1F
:10020000371E35014601062E04C0969487947794D4
:1002100067940A94D2F721E030E040E050E004C057
:10022000220F331F441F551F6A95D2F721503040CB
:10023000404050402A213B214C215D2121153105B0
:100240004105510521F021E030E040E050E0590146
:100250006A01A628B728C828D9280BC0821593059B
:100260002CF01C01AA24BB24650103C0EE24FF244A
:10027000870111969C91D20111968C91981709F4DF
:1002800045C0992339F0A80197012A193B094C0967
:100290005D0906C0A60195012E193F09400B510BBF
:1002A00057FD08C01182338222822483358346831E
:1002B00057831DC081E0818333822282882799275A
:1002C000DC01821B930BA40BB50B84839583A6835F
:1002D000B7830DC0220F331F441F551F248335835E
:1002E00046835783828193810197938382832481FC
:1002F000358146815781DA01C9010197A109B10908
:100300008F5F9F4FAF4FBF4328F30BC09183338262
:100310002282EA0CFB1C0C1D1D1DE482F582068363
:10032000178383E08083248135814681578157FF7D
:100330001AC0C901AA2797FDA095BA2F81709070A5
:10034000A070B0705695479537952795822B932BC3
:10035000A42BB52B84839583A683B7838281938155
:10036000019693838283DF0101C0D201CD01CDB715
:10037000DEB7E2E123C6A0E2B0E0E0ECF1E00EC6B9
:1003800069837A838B839C832D833E834F83588735
:10039000E9E0EE2EF12CEC0EFD1ECE010196B70128
:1003A000EDD38E010F5E1F4FCE010596B801E6D347
:1003B0008A8991E089278A8BC701B801AE01475E1F
:1003C0005F4F8FDE06D3A096E6E004C6A0E2B0E061
:1003D000EBEEF1E0E3C569837A838B839C832D8305
:1003E0003E834F835887F9E0EF2EF12CEC0EFD1E73
:1003F000CE010196B701C2D38E010F5E1F4FCE0111
:100400000596B801BBD3C701B801AE01475E5F4F87
:1004100068DEDFD2A096E6E0DDC5A0E2B0E0E2E172
:10042000F2E0B0C569837A838B839C832D833E83FE
:100430004F835887CE010196BE01675F7F4F9ED3E1
:10044000CE010596BE016F5E7F4F98D3998592309D
:1004500088F089898230C8F0943019F4823051F4E0
:1004600004C0843029F4923081F48BE191E0C6C05D
:10047000923049F420E09A858A89981321E02A87EE
:10048000CE010996BBC0823049F420E09A858A8962
:10049000981321E02A8BCE014196B0C02D843E8472
:1004A0004F8458886D887E888F88988CEE24FF242E
:1004B0008701AA24BB24650140E050E060E070E0C1
:1004C000E0E0F0E0C10181709070892BE9F0E60C6A
:1004D000F71C081D191D9A01AB012A0D3B1D4C1D6F
:1004E0005D1D80E090E0A0E0B0E0E614F7040805B0
:1004F000190520F481E090E0A0E0B0E0BA01A90184
:10050000480F591F6A1F7B1FAA0CBB1CCC1CDD1C8B
:1005100097FE08C081E090E0A0E0B0E0A82AB92AE8
:10052000CA2ADB2A3196E032F10549F0660C771CC5
:10053000881C991C5694479437942794C3CFFA8506
:10054000EA892B893C898B859C85280F391F2E5F72
:100550003F4F17C0CA0181709070892B61F01695CA
:100560000795F794E79480E090E0A0E0B0E8E82AEF
:10057000F92A0A2B1B2B76956795579547952F5F80
:100580003F4F77FDE7CF0CC0440F551F661F771F05
:1005900017FD4160EE0CFF1C001F111F2150304061
:1005A000403090E0590790E0690790E4790760F3E4
:1005B0002B8F3C8FDB01CA018F779070A070B070D9
:1005C00080349105A105B10561F447FD0AC0E1142D
:1005D000F1040105110529F0405C5F4F6F4F7F4F1B
:1005E00040781A8EFE1711F081E08A8F4D8F5E8F52
:1005F0006F8F78A383E0898FCE014996EAD1A096C8
:10060000E2E1DCC4A8E1B0E0E7E0F3E0C3C4698361
:100610007A838B839C832D833E834F835887B9E0F5
:10062000EB2EF12CEC0EFD1ECE010196B701A6D2E9
:100630008E010F5E1F4FCE010596B8019FD229850E
:10064000223008F47EC03989323010F4B8017CC001
:100650008A859A8989278A87243011F0223031F4DB
:10066000231709F06EC06BE171E06EC0343039F4CD
:100670001D861E861F86188A1C861B8604C0323083
:1006800021F484E08987B7015FC02B853C858B8985
:100690009C89281B390B3C872B87ED84FE840F85B2
:1006A0001889AD88BE88CF88D88CEA14FB040C0565
:1006B0001D0540F4EE0CFF1C001F111F215030409F
:1006C0003C872B8720E030E040E050E080E090E085
:1006D000A0E0B0E460E070E0EA14FB040C051D0546
:1006E00040F0282B392B4A2B5B2BEA18FB080C090E
:1006F0001D09B695A79597958795EE0CFF1C001FD1
:10070000111F6F5F7F4F6F31710531F7DA01C9013A
:100710008F779070A070B07080349105A105B105FD
:1007200061F427FD0AC0E114F1040105110529F067
:10073000205C3F4F4F4F5F4F20782D873E874F877C
:10074000588BBE01675F7F4FCB0143D16896EAE0CB
:100750003DC4A8E1B0E0EEEAF3E020C469837A8307
:100760008B839C832D833E834F83588789E0E82EBB
:10077000F12CEC0EFD1ECE010196B701FFD18E01CA
:100780000F5E1F4FCE010596B801F8D189858230E2
:1007900038F08989823020F0C701B80167D201C0E2
:1007A0008FEF6896E6E016C4ACE0B0E0E9EDF3E068
:1007B000F9C369837A838B839C83CE010196BE0142
:1007C0006B5F7F4FDBD18D81823061F1823050F1E0
:1007D000843021F48E81882351F12EC02F813885F9
:1007E00037FD20C06E812F3131051CF06623F9F0F2
:1007F00023C08EE190E0821B930B29853A854B85BF
:100800005C8504C056954795379527958A95D2F70C
:100810006623B1F050954095309521953F4F4F4F4D
:100820005F4F0EC020E030E040E050E009C02FEF05
:100830003FEF4FEF5FE704C020E030E040E050E8DA
:10084000B901CA012C96E2E0C9C3A8E0B0E0EAE22F
:10085000F4E0A0C37B018C01611571058105910550
:1008600019F482E089835FC083E089838EE1C82E1A
:10087000D12CDC82CB82ED82FE820F831887C801E7
:10088000B70158D0FC013197F7FF3BC0222733272F
:100890002E1B3F0B57016801022E04C0D694C7944B
:1008A000B794A7940A94D2F740E050E060E070E07B
:1008B00081E090E0A0E0B0E004C0880F991FAA1F7B
:1008C000BB1F2A95D2F70197A109B1098E219F215B
:1008D000A023B1230097A105B10521F041E050E02C
:1008E00060E070E04A295B296C297D294D835E8395
:1008F0006F8378878EE190E08E1B9F0B9C838B83A8
:1009000012C0309781F00E2E04C0EE0CFF1C001FA9
:10091000111F0A94D2F7ED82FE820F831887CE1A38
:10092000DF0ADC82CB821A82CE01019652D0289651
:10093000EAE04CC3EF92FF920F931F937B018C016F
:1009400080E0E81680E0F80681E0080780E01807FC
:1009500088F48FEFE816F1040105110531F028F055
:1009600088E090E0A0E0B0E017C080E090E0A0E078
:10097000B0E012C080E0E81680E0F80680E00807EA
:1009800081E0180728F088E190E0A0E0B0E004C022
:1009900080E190E0A0E0B0E020E230E040E050E014
:1009A000281B390B4A0B5B0B04C016950795F7946F
:1009B000E7948A95D2F7F701ED5DFE4F8081281B01
:1009C000310941095109C9011F910F91FF90EF9021
:1009D0000895DF92EF92FF920F931F93FC01E48042
:1009E000F58006811781D1808081823048F480E0D3
:1009F00090E0A0E1B0E0E82AF92A0A2B1B2BA5C061
:100A0000843009F49FC0823021F4EE24FF24870152
:100A100005C0E114F1040105110519F4E0E0F0E06E
:100A200096C0628173819FEF623879070CF05BC0DA
:100A300022E83FEF261B370B2A3131052CF020E04E
:100A400030E040E050E02AC0B801A701022E04C007
:100A500076956795579547950A94D2F781E090E08F
:100A6000A0E0B0E004C0880F991FAA1FBB1F2A9501
:100A7000D2F70197A109B1098E219F21A023B123AB
:100A80000097A105B10521F081E090E0A0E0B0E081
:100A90009A01AB01282B392B4A2B5B2BDA01C901B8
:100AA0008F779070A070B07080349105A105B1056A
:100AB00039F427FF09C0205C3F4F4F4F5F4F04C000
:100AC000215C3F4F4F4F5F4FE0E0F0E02030A0E06F
:100AD0003A07A0E04A07A0E45A0710F0E1E0F0E08E
:100AE00079018A0127C06038710564F5FB01E1587E
:100AF000FF4FD801C7018F779070A070B07080341D
:100B00009105A105B10539F4E7FE0DC080E490E040
:100B1000A0E0B0E004C08FE390E0A0E0B0E0E80E19
:100B2000F91E0A1F1B1F17FF05C016950795F7949E
:100B3000E794319687E016950795F794E7948A95A0
:100B4000D1F705C0EE24FF248701EFEFF0E06E2F10
:100B5000679566276795902F9F77D794DD24D79464
:100B60008E2F8695492F462B582F5D29B701CA0134
:100B70001F910F91FF90EF90DF900895FC01DB0132
:100B8000408151812281622F6F7770E0221F2227DE
:100B9000221F9381892F880F822B282F30E0991FE5
:100BA0009927991F11969C93119721153105A9F545
:100BB000411551056105710511F482E037C082E8E5
:100BC0009FEF13969C938E9312979A01AB0167E067
:100BD000220F331F441F551F6A95D1F783E08C9372
:100BE0000DC0220F331F441F551F12968D919C91EB
:100BF0001397019713969C938E931297203080E061
:100C0000380780E0480780E4580758F314962D937E
:100C10003D934D935C93179708952F3F310579F4D9
:100C2000411551056105710519F484E08C9308950F
:100C300064FF03C081E08C9312C01C9210C02F5738
:100C4000304013963C932E93129783E08C9387E069
:100C5000440F551F661F771F8A95D1F7706414964D
:100C60004D935D936D937C93179708951F93DC01CB
:100C7000FB019C91923008F447C08081823008F4D7
:100C800043C0943051F411961C91843099F58181C0
:100C9000682F70E0611B71093FC0843021F09230F1
:100CA00031F48230B9F18181882389F12DC0119608
:100CB0001C9111978230F1F081811817D9F41296A6
:100CC0002D913C911397828193818217930794F021
:100CD00028173907BCF014968D919D910D90BC9109
:100CE000A02D2481358146815781281739074A076D
:100CF0005B0718F4112341F00AC082179307A40779
:100D0000B50740F4112319F061E070E005C06FEF02
:100D10007FEF02C060E070E0CB011F910895ECE727
:100D2000F0E0808185608083808180648083EAE751
:100D3000F0E0808186608083808180688083089570
:100D400083B7817F826083BFEAE7F0E080818860BB
:100D5000808378940895189520E030E040E083B7D0
:100D6000816083BF889583B78E7F83BF8091780031
:100D700090917900280F391F4F5F403181F73695E8
:100D8000279536952795C90108952F923F924F9246
:100D90005F926F927F928F929F92AF92BF92CF920B
:100DA000DF92EF92FF920F931F9320E030E048EC28
:100DB00052E433DB78D120E030E048EC52E422DC2E
:100DC0003B014C0120E030E040E251E41BDC7B01C0
:100DD0008C0120E030E040E452E4F8DA5AD9DC013A
:100DE000CB01B7D0C801B70104D17B018C01C4018C
:100DF000B30120E030E040E452E4E8DA5B016C014A
:100E0000C801B70120E030E040E251EC06DB9B0175
:100E1000AC01C601B501DADA3CD9DC01CB0199D0CD
:100E20008EE297D0C401B30120E030E040E251E40B
:100E3000F4DA1B012C01C401B301DBD07B018C016E
:100E4000C201B10120E030E040E452E4BFDA5B01CE
:100E50006C01C801B70120E030E040E251ECDDDA7E
:100E60009B01AC01C601B501B1DA13D9DC01CB019C
:100E700070D0C201B101BDD05B016C01C401B301EE
:100E800020E030E048EC52E4C8DA20E030E040E412
:100E900052E49CDA7B018C01C601B50120E030E010
:100EA00040E251ECBADA9B01AC01C801B7018EDA1D
:100EB000F0D8DC01CB014DD080E091E052D01F9101
:100EC0000F91FF90EF90DF90CF90BF90AF909F90E9
:100ED0008F907F906F905F904F903F902F900895EC
:100EE000CF93DF9325D083E091E03BD018DF28DF5C
:100EF000C9E1D0E031DFA0E0B0E0BC01CD01A5DC6C
:100F000027EC3BE447E450E488DA2DE232EB41EA97
:100F100050E483DA20E030E040E859E37EDA35DF60
:100F200088E893E1FE013197F1F70197D9F7E2CF15
:100F30001092C5008CE08093C400E0ECF0E080816A
:100F40008260808388E18093C10086E08093C20044
:100F50000895982F8091C00085FFFCCF9093C60024
:100F60000895AC0120E007C08091C00085FFFCCF50
:100F7000E093C6002F5FFA01E20FF11DE081EE233E
:100F800099F708952F923F924F925F926F927F92BE
:100F90008F929F92AF92BF92CF92DF92EF92FF9289
:100FA0000F931F93CF93DF93CDB7DEB7CA1BDB0B35
:100FB0000FB6F894DEBF0FBECDBF09942A883988DA
:100FC00048885F846E847D848C849B84AA84B984E1
:100FD000C884DF80EE80FD800C811B81AA81B981ED
:100FE000CE0FD11D0FB6F894DEBF0FBECDBFED0101
:100FF00008953BD080F09F3740F491110EF04DC022
:1010000060E070E080E89FEB089526F41B16611DF8
:10101000711D811D01C01BC0882371F4772321F04D
:101020009850872B762F07C0662311F499270DC09F
:101030009051862B70E060E02AF09A95660F771F3A
:10104000881FDAF7880F9695879597F908959F3F3F
:1010500031F0915020F4879577956795B795880F73
:10106000911D9695879597F9089545D0A0F0BEE714
:10107000B91788F4BB279F3860F41616B11D672F87
:10108000782F8827985FF7CF869577956795B11D5C
:1010900093959639C8F30895E894BB276627772778
:1010A000CB0197F9089527D0E0F09E37D8F0963914
:1010B000B8F49E3848F4672F782F8827985FF9CFC7
:1010C00086957795679593959539D0F3B62FB1703E
:1010D0006B0F711D811D20F487957795679593950A
:1010E0009BCFB5CFDACF57FD9058440F551F59F01D
:1010F0005F3F71F04795880F97FB991F61F09F3F05
:1011000079F087950895121613061406551FF2CF2D
:101110004695F1DF08C0161617061806991FF1CF7D
:0E11200086957105610508940895F894FFCF37
:10112E000D0A000D0A4469676974616C20566F6C74
:10113E00746D657465720D0A0D0A000000000000E2
:10114E00000000000102020303030304040404046C
:10115E000404040505050505050505050505050534
:10116E000505050606060606060606060606060614
:10117E000606060606060606060606060606060601
:10118E0006060607070707070707070707070707E4
:10119E0007070707070707070707070707070707D1
:1011AE0007070707070707070707070707070707C1
:1011BE0007070707070707070707070707070707B1
:1011CE000707070808080808080808080808080894
:1011DE000808080808080808080808080808080881
:1011EE000808080808080808080808080808080871
:1011FE000808080808080808080808080808080861
:10120E000808080808080808080808080808080850
:10121E000808080808080808080808080808080840
:10122E000808080808080808080808080808080830
:10123E000808080808080808080808080808080820
:04124E000808080084
:00000001FF
