S0120000436C6F636B5F377365672E7372656351
S11300000C9434000C9451000C9451000C94510045
S11300100C9451000C9451000C9451000C94510018
S11300200C9451000C9412020C9451000C94510045
S11300300C9451000C9451000C9451000C945100F8
S11300400C9451000C9451000C9451000C945100E8
S11300500C9451000C9451000C9451000C945100D8
S11300600C9451000C94510011241FBECFEFD8E022
S1130070DEBFCDBF11E0A0E0B1E0EEEFF4E002C0DE
S113008005900D92A630B107D9F721E0A6E0B1E0C2
S113009001C01D92A031B207E1F70E9437020C940F
S11300A07D020C94000084E085B980E48BB9089546
S11300B08DE285B980EC8BB9089580E385B980E43D
S11300C08BB9089580E285B980EC8BB9089589E0F5
S11300D085B980EC8BB9089582E085B980EC8BB941
S11300E0089582E085B980E48BB9089585E285B9E5
S11300F080EC8BB9089515B880E48BB9089581E03C
S113010085B980EC8BB9089585E385B980EC8BB90A
S113011008958FEF85B98BB90895CF92DF92EF924E
S1130120FF920F931F93CF93DF93EC01E0E0F0E095
S11301300AE010E0E12CF12C11C0A9014E0F5F1F61
S1130140C417D50711F4C62ED72E2F5F3F4F2A3080
S1130150310599F73A96E634F10539F0CF01B80143
S11301600E9455022E2D3F2DE8CF8C2D9D2DDF9121
S1130170CF911F910F91FF90EF90DF90CF90089552
S113018060E070E0F0E0E0E012C0A901460F571F04
S11301908417950711F4B22FA32F2F5F3F4F2A30F6
S11301A0310599F7665F7F4F6634710519F02F2F7B
S11301B03E2FEBCF8B2F9A2F0895CF93DF93C091CF
S11301C00001D0910101CE010E948D00909307019E
S11301D080930601CE010E94C00090930901809390
S11301E00801C0910201D0910301CE010E948D004B
S11301F090930F0180930E01CE010E94C000909352
S11302000D0180930C01DF91CF910895CF93DF937B
S1130210EC01009719F40E9453000CC08130910541
S113022019F40E9458000CC08230910519F40E9400
S11302305D000CC0C330D10519F40E9462000CC0EB
S1130240C430D10519F40E9467000CC0C530D10533
S113025019F40E946C000CC0C630D10519F40E9438
S113026071000CC0C730D10519F40E9476000AC091
S1130270C830D10519F40E947B0004C0299711F4F9
S11302800E947F00DF91CF9108950E94890081E050
S113029088B98091060190910701009711F00E949E
S11302A006010E94890082E088B98091080190913A
S11302B009010E9406010E94890084E088B90E9415
S11302C084000E94890088E088B980910E01909191
S11302D00F010E9406010E94890080E188B9809183
S11302E00C0190910D010E94060108958FE384B9D9
S11302F08FE187B980EC8AB90E9489000895109231
S11303000B0110920A014A9B0FC0E0E0F1E08081EA
S1130310918101969183808381E090E090930B0119
S113032080930A010E94DD004B9B0FC0E2E0F1E0E4
S11303308081918101969183808381E090E0909304
S11303400B0180930A010E94DD00809102019091CB
S11303500301CC9734F010920301109202010E9421
S1130360DD0080910001909101010D9744F081E03E
S113037090E090930101809300010E94DD000895B4
S11303801092700080E28093B6001092B200E1EB0C
S1130390F0E0808185608083E6EBF0E0808181710C
S11303A0E9F781E087BB8093700008958091040190
S11303B09091050101968C3391052CF490930501DD
S11303C0809304010DC01092050110920401E2E033
S11303D0F1E0808191810196918380830E94DD0008
S11303E08091020190910301CC976CF0109203016B
S11303F010920201E0E0F1E0808191810196918305
S113040080830E94DD0080910001909101010D978D
S113041044F081E090E090930101809300010E94F8
S1130420DD0008951F920F920FB60F9211242F939F
S11304303F934F935F936F937F938F939F93AF9368
S1130440BF93EF93FF930E94D6010000FF91EF91B9
S1130450BF91AF919F918F917F916F915F914F91D8
S11304603F912F910F900FBE0F901F9018950E94EF
S1130470760183B7866083BF0E94C00178940E948E
S1130480DD0001E010E0E12CF12C10930B0100934E
S11304900A012196CD3281E0D80724F00E947F0121
S11304A0CE2DDF2D0E944501F0CF97FB072E16F4C9
S11304B0009407D077FD09D00E94690207FC05D09B
S11304C03EF4909581959F4F0895709561957F4F67
S11304D00895AA1BBB1B51E107C0AA1FBB1FA61787
S11304E0B70710F0A61BB70B881F991F5A95A9F7D9
S11104F080959095BC01CD010895F894FFCF3E
S10904FE0C0000000000E8
S9030000FC
