:1000000033C0000044C0000042C0000040C00000F7
:100010003EC000003CC000003AC0000038C00000F4
:1000200036C0000034C0000032C0000030C0000004
:100030002EC000002CC000002AC0000028C0000014
:1000400026C0000024C0000022C0000020C0000024
:100050001EC000001CC000001AC0000018C0000034
:1000600016C0000014C0000011241FBECFEFD8E05E
:10007000DEBFCDBF11E0A0E0B1E0E6E7F2E002C0F4
:1000800005900D92A830B107D9F7B9D0F2C0B8CF1A
:10009000282F982F92959F709A3030F48091C0004D
:1000A00085FFFCCF905D05C08091C00085FFFCCF2F
:1000B000995C9093C600922F9F709A3030F4809193
:1000C000C00085FFFCCF905D05C08091C00085FF1A
:1000D000FCCF995C9093C6000895FC0107C0809105
:1000E000C00085FFFCCF9093C60031969081992384
:1000F000B1F70895229A84B1886284B92C9A83E575
:100100008CBD0895AF92BF92CF92DF92EF92FF9293
:100110000F931F93DF93CF93CDB7DEB728970FB61A
:10012000F894DEBF0FBECDBF182F6A017B01B22E3F
:10013000A02E80E091E0D1DF812FAADF2A981EBD9A
:100140000DB407FEFDCF8EB58F2D9927AA27BB27AB
:100150008EBD0DB407FEFDCF8EB5C701AA27BB2704
:100160008EBD0DB407FEFDCF8EB5BB27AF2D9E2DE6
:100170008D2D8EBD0DB407FEFDCF8EB5CEBC0DB45A
:1001800007FEFDCF8EB5BEBC0DB407FEFDCF8EB50C
:100190007E010894E11CF11CF7011E2D9FEF06C0A3
:1001A0009EBD0DB407FEFDCF8EB581938E2F811BB2
:1001B0008A15B0F32A9A00E20AC08091C00085FF38
:1001C000FCCF0093C600F70181917F0161DF8E2D86
:1001D000811B8A1590F385E091E07FDF28960FB6AA
:1001E000F894DEBF0FBECDBFCF91DF911F910F916D
:1001F000FF90EF90DF90CF90BF90AF9008950F9356
:100200001092C50080E48093C40086E08093C20011
:1002100088E18093C1006EDF2A9A80E09FEF9EBD47
:100220000DB407FEFDCF2EB58F5F8A30C1F78091E8
:10023000C00087FFFCCF8091C600823359F0833322
:1002400079F08133A1F780E440E050E060E070E0B5
:1002500025E90CC081E440E050E060E070E005C0BA
:1002600080E540E052E060E070E02FEF08E04ADF18
:06027000DECFF894FFCF81
:08027600434D4420000D0A0075
:00000001FF
