:100000000C9434000C943E000C943E000C943E0082
:100010000C943E000C943E000C943E000C943E0068
:100020000C943E000C943E000C943E000C943E0058
:100030000C943E000C943E000C943E000C943E0048
:100040000C943E000C943E000C943E000C943E0038
:100050000C943E000C943E000C943E000C943E0028
:100060000C943E000C943E0011241FBECFEFD8E04C
:10007000DEBFCDBF0E9440000C945B000C940000DA
:1000800081E284B980E090E030E020E0199B06C076
:10009000289A01968233910524F406C028982D9859
:1000A00003C02D9A832F922FE3ECF9E03197F1F7FB
:0A00B00000C00000EBCFF894FFCF72
:00000001FF
