:1000000014C019C018C017C016C015C014C013C042
:1000100012C011C010C00FC00EC00DC00CC00BC06C
:100020000AC009C008C007C006C011241FBECFED1A
:10003000CDBF02D023C0E4CF8FEF87BB80E090E03C
:10004000F1E0E0E070E041E050E082990196883014
:1000500091051CF0F8BB8E2F972F68B39A01082EDC
:1000600002C0220F331F0A94E2F7262B28BBA7EA0F
:10007000B1E61197F1F700C00000E7CFF894FFCF89
:00000001FF
