:1000000033C0000044C0000037C0000035C000000D
:1000100033C0000031C000002FC000002DC0000020
:100020002BC0000029C0000027C0000025C0000030
:1000300023C0000021C000001FC000001DC0000040
:100040001BC0000019C0000017C0000015C0000050
:1000500013C0000011C000000FC000000DC0000060
:100060000BC0000009C0000011241FBECFEFD8E074
:10007000DEBFCDBF02D015C0C3CF52985A9A80912F
:100080006900846080936900E89A7894FFCF1F929A
:100090000F920FB60F9211240F900FBE0F901F906A
:0600A0001895F894FFCF53
:00000001FF
