:1000000033C0000039C0000037C0000035C0000018
:1000100033C0000031C000002FC000002DC0000020
:100020002BC0000029C0000027C0000025C0000030
:1000300023C0000021C000001FC000001DC0000040
:100040001BC0000019C0000017C0000015C0000050
:1000500013C0000011C000000FC000000DC0000060
:100060000BC0000009C0000011241FBECFEFD8E074
:10007000DEBFCDBF17D0F6C0C3CF90917C00907F7C
:10008000982B90937C0080917A00806480937A0012
:1000900080917A0086FDFCCF209178003091790024
:1000A000C90108952F923F924F925F926F927F9273
:1000B0009F92AF92BF92CF92DF92EF92FF920F93F7
:1000C0001F93CF93DF9380917C00806480937C00AA
:1000D00080917A00836080937A0080917A008068B2
:1000E00080937A008091800082608093800080916C
:1000F000810088618093810080918100816080937C
:10010000810080E29EE49093870080938600809136
:100110008000806A8093800084B1866084B984EF17
:1001200091E0909389008093880090938B00809356
:100130008A0084B1806384B98BB1806E8BB950ED35
:10014000252E57E0352E49E1442E512C38EE632EF2
:1001500033E0732E4F99FECF2C982D9889B190E003
:1001600026E0969587952A95E1F721E030E08227F1
:10017000932799249394982200E010E0EE24FF2422
:10018000CC24DD24AA24BB24C0E0D0E080E075DFCD
:10019000080F191F81E071DFE80EF91E82E06DDFA4
:1001A000C80ED91E83E069DFA80EB91E2196CA3099
:1001B000D10561F740E0C8016AE070E03FD09B01E3
:1001C000C7016AE070E03AD02617370708F041E02F
:1001D000491589F42C9A7092890060928800219ABE
:1001E00080E197E2F2013197F1F70197D9F7309268
:1001F00089002092880040E0C6016AE070E01ED0CD
:100200009B01C5016AE070E019D02617370708F096
:1002100041E0491509F09ECF2D9A30928B00209233
:100220008A00229A80E197E2F2013197F1F7019773
:10023000D9F770928B0060928A008CCFAA1BBB1BEF
:1002400051E107C0AA1FBB1FA617B70710F0A61BD6
:10025000B70B881F991F5A95A9F780959095BC01F7
:08026000CD010895F894FFCFD1
:00000001FF
