:1000000033C0000039C0000037C0000035C0000018
:1000100033C0000031C000002FC000002DC0000020
:100020002BC0000029C0000027C0000025C0000030
:1000300023C0000021C000001FC000001DC0000040
:100040001BC0000019C0000017C0000015C0000050
:1000500013C0000011C000000FC000000DC0000060
:100060000BC0000009C0000011241FBECFEFD4E078
:10007000DEBFCDBF17D038C0C3CF90917C00907F3A
:10008000982B90937C0080917A00806480937A0012
:1000900080917A0086FDFCCF209178003091790024
:1000A000C9010895FF920F931F9380917C00806493
:1000B00080937C0080917A00836080937A008091A5
:1000C0007A00806880937A008FEF84B9FF24FA94D5
:1000D00083E0D3DF8C0180E0D0DF8017910710F43C
:0C00E000F5B8F6CF15B8F4CFF894FFCFB8
:00000001FF
