:1000000019C033C032C031C030C02FC02EC02DC087
:100010002CC02BC02AC029C028C027C026C025C09C
:1000200024C023C022C021C020C01FC01EC01DC0CC
:100030001CC01BC011241FBECFEFD4E0DEBFCDBF5C
:1000400011E0A0E0B1E0E6E2FAE002C005900D9216
:10005000A833B107D9F711E0A8E3B1E001C01D92C0
:10006000A137B107E1F73AD2DCC4CACF9093C500FB
:100070008093C40086E08093C20088E18093C10031
:1000800008958091C00087FFFCCF8091C60008953D
:10009000982F8091C00085FFFCCF9093C6000895F3
:1000A000282F982F92959F709A3030F48091C0003D
:1000B00085FFFCCF905D05C08091C00085FFFCCF1F
:1000C000995C9093C600922F9F709A3030F4809183
:1000D000C00085FFFCCF905D05C08091C00085FF0A
:1000E000FCCF995C9093C6000895FC0107C08091F5
:1000F000C00085FFFCCF9093C60031969081992374
:10010000B1F70895229A84B1886284B92C9A83E564
:100110008CBD08958EBD0DB407FEFDCF8EB508953C
:10012000AF92BF92CF92DF92EF92FF920F931F9305
:10013000DF93CF93CDB7DEB7A0970FB6F894DEBFAD
:100140000FBECDBF182F6A017B01B22EA02E80E01A
:1001500091E0CBDF812FA4DF2A981EBD0DB407FEEE
:10016000FDCF8EB58F2D9927AA27BB278EBD0DB445
:1001700007FEFDCF8EB5C701AA27BB278EBD0DB4E4
:1001800007FEFDCF8EB5BB27AF2D9E2D8D2D8EBDCD
:100190000DB407FEFDCF8EB5CEBC0DB407FEFDCF6E
:1001A0008EB5BEBC0DB407FEFDCF8EB57E010894A2
:1001B000E11CF11CF701DE2C9FEF06C09EBD0DB4C3
:1001C00007FEFDCF8EB581938E2F8D198A15B0F362
:1001D0002A9A0FEF80E2C82E11C08091C00085FFDF
:1001E000FCCFC092C600F7011081812F59DF1F3F5D
:1001F00009F4102F0894E11CF11C012F8E2D8D198C
:100200008A1558F385E091E070DF802FA0960FB635
:10021000F894DEBF0FBECDBFCF91DF911F910F913C
:10022000FF90EF90DF90CF90BF90AF9008950F9325
:100230001F93CF93DF932A9A80E09FEF9EBD0DB46A
:1002400007FEFDCF2EB58F5F8A30C1F710E0C4EFF7
:10025000D1E00CC088EE93E0FE013197F1F70197F1
:10026000D9F71F5F1A3011F48FEF38C080E440E0F7
:1002700050E060E070E025E908E052DF813051F79E
:1002800010E0C4EFD1E00CC088EE93E0FE0131979E
:10029000F1F70197D9F71F5F1A3011F48EEF1EC0E6
:1002A00081E440E050E060E070E02FEF08E038DFEC
:1002B000882351F780E540E052E060E070E02FEFE6
:1002C0002FDF10923D0110923C01109238011092E4
:1002D000390110923A0110923B0180E0DF91CF91F9
:1002E0001F910F910895CF92DF92EF92FF920F939B
:1002F0001F936B017C012A9881E58EBD0DB407FE2A
:10030000FDCF8EB5D701C6017FE0B695A79597952D
:1003100087957A95D1F78EBD0DB407FEFDCF8EB5CA
:10032000D701C60167E0B695A795979587956A9519
:10033000D1F78EBD0DB407FEFDCF8EB58C2D880F85
:100340008EBD0DB407FEFDCF8EB51EBC0DB407FEED
:10035000FDCF8EB58FEF8EBD0DB407FEFDCF8EB5F0
:1003600060E070E09FEF05C06F5F7F4F64367105FE
:1003700071F09EBD0DB407FEFDCF8EB58823A1F7A9
:1003800006C06F5F7F4F6436710521F412C060E0D4
:1003900070E09FEF9EBD0DB407FEFDCF8EB58E3F82
:1003A00081F707C06EBD0DB407FEFDCF7EB5019687
:1003B00003C080E090E06FEF8417950798F360E04A
:1003C00070E09FEF0BC09EBD0DB407FEFDCF8EB554
:1003D000F901E60FF71F80836F5F7F4F601771078A
:1003E00090F3040F151F8FEF07C08EBD0DB407FEED
:1003F000FDCF9EB50F5F1F4F92E000301907A8F3A5
:100400008FEF8EBD0DB407FEFDCF8EB58FEF8EBD85
:100410000DB407FEFDCF8EB52A9A1F910F91FF9064
:10042000EF90DF90CF9008959B01AC01E9E05695E5
:10043000479537952795EA95D1F720933801309362
:10044000390140933A0150933B01717070933D0123
:1004500060933C010895DF92EF92FF920F931F93F8
:10046000D82EE82EFF2460913801709139018091D7
:100470003A0190913B0140913C0150913D012EE3A6
:1004800031E0870130DF80913C0190913D018E0D7C
:100490009F1D90933D0180933C0180509240B9F4A0
:1004A00010923D0110923C018091380190913901E8
:1004B000A0913A01B0913B010196A11DB11D80931D
:1004C000380190933901A0933A01B0933B018D2DEF
:1004D0001F910F91FF90EF90DF9008951F9310925E
:1004E000C50080E48093C40086E08093C20088E168
:1004F0008093C10007DE88E091E0F7DD98DE182FD9
:10050000882319F080E191E006C0BAD1182F882322
:1005100041F089E191E0E9DD812FC2DD2FEF3FEF6E
:100520002BC083E291E06CE271E0F8D0182F8823B1
:10053000A9F080E391E0EFCF80E221D0382FEEE305
:10054000F1E090E009C020818091C00085FFFCCFE0
:100550002093C6009F5F31969317ACF380916D0195
:1005600090916E01A0916F01B09170010097A1056B
:10057000B10511F720E030E0C9011F9108951F93E4
:10058000182F80916D0190916E01A0916F01B09133
:1005900070010097A105B10509F44FC08091690170
:1005A00090916A01A0916B01B0916C010097A10537
:1005B000B10509F058C0609167017091680180E051
:1005C00090E0660F771F881F991F20915E01309180
:1005D0005F014091600150916101620F731F841FA0
:1005E000951F22DF82E037DF20913E0130913F01ED
:1005F000309368012093670180916601682F70E055
:1006000080E090E049E0660F771F881F991F4A95A8
:10061000D1F76093690170936A0180936B019093A5
:100620006C014FEF2F3F340751F410926D0110927F
:100630006E0110926F011092700160E06CC0225048
:10064000304040E050E0CED19B01AC0160916201AE
:10065000709163018091640190916501620F731F35
:10066000841F951FE1DE20916D0130916E01409154
:100670006F0150917001812F992787FD9095A92FC7
:10068000B92F281739074A075B0708F4122F209162
:10069000690130916A0140916B0150916C01812F89
:1006A000992787FD9095A92FB92F281739074A0751
:1006B0005B0708F4122F812FCEDE682F992787FD64
:1006C0009095A92FB92F20916D0130916E01409125
:1006D0006F0150917001281B390B4A0B5B0B209363
:1006E0006D0130936E0140936F0150937001209122
:1006F000690130916A0140916B0150916C01281B96
:10070000390B4A0B5B0B2093690130936A014093CC
:100710006B0150936C01862F1F910895EF92FF9209
:100720000F931F93CF93DF938C01EB0180E227DFC0
:10073000803210F48EEF9DC040E050E0FA01E25CA0
:10074000FE4F208130E0F801E40FF51F80819927EA
:1007500087FD90952817390709F07DC0842F8F5F9A
:100760004F5F5F4F4830510549F788300CF473C034
:100770002091460130E08881992787FD90952817C0
:10078000390709F068C02091470130E08981992735
:1007900087FD90952817390709F05DC02091480121
:1007A00030E08A81992787FD90952817390709F04D
:1007B00052C0209158013091590130936801209323
:1007C000670180916601E82EFF2400E010E069E0F7
:1007D000EE0CFF1C001F111F6A95D1F7E092690112
:1007E000F0926A0100936B0110936C0180913E01BD
:1007F0008E3221F08091490184FF05C08FEF9FEF79
:10080000AFEFBFEF08C080915A0190915B01A091BA
:100810005C01B0915D0180936D0190936E01A09396
:100820006F01B09370012250304040E050E0C801A9
:10083000B701D8D09B01AC01609162017091630156
:100840008091640190916501620F731F841F951F51
:10085000EBDD80E00EC080916D0190916E01A09162
:100860006F01B09170010097A105B10509F05ECF4D
:100870008FEFDF91CF911F910F91FF90EF9008952F
:10088000EF92FF920F931F936EEB71E080E090E088
:10089000CBDD10E080E1DFDD80914201843049F062
:1008A000863039F08E3029F01F5F143099F78FEFC2
:1008B00094C06091460170914701809148019091E8
:1008C0004901B9E0660F771F881F991FBA95D1F7C4
:1008D00060935E0170935F0180936001909361016A
:1008E000655F7F4F8F4F9F4F9FDD8DE0B4DD80911F
:1008F0003E0190913F018050924011F08EEF6DC00B
:1009000080914101F82EFF0CEE2400E010E0809170
:100910005E0190915F01A0916001B0916101E80ECC
:10092000F91E0A1F1B1FE0925E01F0925F01009307
:100930006001109361016091490170914A0180E06A
:1009400090E02091430130E040E050E04BD0A9E03E
:10095000660F771F881F991FAA95D1F76E0D7F1D0F
:10096000801F911FE0904401F0904501970140E005
:1009700050E0F5E0220F331F441F551FFA95D1F7C1
:10098000260F371F481F591F2093620130936301C0
:1009900040936401509365012091400120936601CA
:1009A000E5E0EE0CFF1CEA95E1F700E010E0E092D4
:1009B0006D01F0926E0100936F01109370012FEFA3
:1009C0003FEF4FEF5FEF2093690130936A0140934F
:1009D0006B0150936C0128DD80E01F910F91FF9017
:1009E000EF900895629FD001739FF001829FE00D08
:1009F000F11D649FE00DF11D929FF00D839FF00D9E
:100A0000749FF00D659FF00D9927729FB00DE11D49
:100A1000F91F639FB00DE11DF91FBD01CF01112426
:060A20000895F894FFCFD9
:100A2600434D4420000D0A0053746172740D0A0090
:100A36005344206572723A20004641542065727212
:100A46003A2000524541444D452020005458540058
:080A56004F70656E3A200000AC
:00000001FF
