S01100004156525F436C6F636B2E73726563DF
S11300000C9434000C9446000C9446000C94460066
S11300100C9446000C9446000C9446000C94460044
S11300200C9446000C9494000C9446000C944600E6
S11300300C9446000C9446000C9446000C94460024
S11300400C9446000C9446000C9446000C94460014
S11300500C9446000C9446000C9446000C94460004
S11300600C9446000C94460011241FBECFEFD8E038
S1130070DEBFCDBF21E0A0E0B1E001C01D92A630FB
S1130080B207E1F70E94BB000C94CB000C94000073
S1130090289884B1816284B908951092700080E236
S11300A08093B6001092B200E1EBF0E080818560AD
S11300B08083E6EBF0E080818171E9F781E087BB22
S11300C0809370000895E4E0F1E0808191810196CD
S11300D091838083CC9764F02D9A1092050110923D
S11300E00401E2E0F1E080819181019691838083B3
S11300F08091020190910301CC975CF0109203016E
S113010010920201E0E0F1E08081918101969183F7
S1130110808380910001909101010D9724F0109249
S113012001011092000108951F920F920FB60F92D1
S113013011242F933F934F935F936F937F938F93E8
S11301409F93AF93BF93EF93FF9381E083B9000034
S11301500E946300FF91EF91BF91AF919F918F91A6
S11301607F916F915F914F913F912F910F900FBEAF
S11301700F901F90189583B7866083BF0E94480034
S11301800E944D00789483B7816083BF889583B7BC
S10D01908E7F83BFF8CFF894FFCFF1
S9030000FC
