:100000000C9434000C9446000C9446000C9446006A
:100010000C9446000C9446000C9446000C94460048
:100020000C9446000C9446000C9446000C94460038
:100030000C9446000C9446000C9446000C94460028
:100040000C9446000C9446000C9431010C9404016D
:100050000C9446000C9446000C9446000C94460008
:100060000C9446000C94460011241FBECFEFD8E03C
:10007000DEBFCDBF11E0A0E0B1E001C01D92A53808
:10008000B107E1F70E9450010C945E010C9400004E
:10009000F8941092C000E1ECF0E0108285E08093CB
:1000A000C4001092C50088E9808386E08093C20076
:1000B00010928401109283018091830180938201C8
:1000C00080918201809381018091810180938001E0
:1000D00078940895482F20E430E080918001909139
:1000E0008101891BB901681B710963307105ACF38B
:1000F000E0918001F0E0EF73F070E050FF4F40833B
:10010000809180018F5F809380018091C100806227
:100110008093C1000895CF93DF93EC0103C0219633
:100120000E946A0088818823D1F7DF91CF910895DA
:10013000CF93DF93EC0102C00E946A00FE0121967A
:1001400084918823C9F7DF91CF910895909182011E
:10015000809183019817D1F3E0918301F0E0EF7370
:10016000F070E05CFE4F8081909183019F5F9093DF
:1001700083010895DC01161617061CF020E030E01C
:1001800035C020E030E06150704090918201809154
:1001900083019817D1F3E0918301F0E0EF73F070E1
:1001A000E05CFE4F9081809183018F5F809383019B
:1001B000FD01E20FF31F90839D3021F481E08093D5
:1001C000840111C09A3039F480918401882359F058
:1001D00010928401DACF1092840126173707ACF60B
:1001E0002F5F3F4FD2CFA20FB31F1C92C9010895BA
:1001F0008091800190918101891B089580918201F5
:1002000090918301891B08951F920F920FB60F9250
:1002100011248F939F93EF93FF939091800180918E
:100220008101981781F0E0918101F0E0EF73F070A7
:10023000E050FF4F80818093C600809181018F5FE5
:100240008093810105C08091C1008F7D8093C100A2
:10025000FF91EF919F918F910F900FBE0F901F9084
:1002600018951F920F920FB60F9211248F93EF9350
:10027000FF93E0918201F0E0EF73F0708091C6008F
:10028000E05CFE4F8083809182018F5F80938201CA
:10029000FF91EF918F910F900FBE0F901F901895C7
:1002A0000E94480080E197E229E130E0F9013197AE
:1002B000F1F70197D9F780E197E2F8CFF894FFCFF3
:00000001FF
